:020000040800F2
:10000000B8F8002075020008AD0B0008AD0A000822
:10001000A90B0008F9060008BF1A0008000000003C
:10002000000000000000000000000000DD010008EA
:100030008D090008000000002102000809160008D0
:100040008F0200088F0200088F0200084D1200087E
:100050008F0200088F0200088F0200088F0200083C
:100060008F0200088F0200088F0200088F0200082C
:100070008F0200088F0200088F0200088F0200081C
:100080008F0200088F0200088F0200088F0200080C
:100090008F0200088F0200088F0200088F020008FC
:1000A0008F0200088F0200088F0200088F020008EC
:1000B0008F0200088F0200088F0200088F020008DC
:1000C0008F0200088F0200088F0200088F020008CC
:1000D0008F0200089D1800088F0200088F02000898
:1000E0008F0200088F0200088F0200088F020008AC
:1000F0008F0200088F0200088F0200088F0200089C
:100100008F0200088F0200088F0200088F0200088B
:100110008F0200088F0200088F0200088F0200087B
:100120008F0200088F0200088F0200088F0200086B
:1001300000F002F800F042F80AA090E8000C8244B7
:100140008344AAF10107DA4501D100F037F8AFF294
:10015000090EBAE80F0013F0010F18BFFB1A43F0A5
:100160000103184790370000B0370000103A24BF51
:1001700078C878C1FAD8520724BF30C830C144BF0C
:1001800004680C607047000000230024002500264E
:10019000103A28BF78C1FBD8520728BF30C148BFEA
:1001A0000B607047642900F00581732900F03382E9
:1001B000002070471FB51FBD10B510BD00F046FAF6
:1001C0001146FFF7F7FF01F0F1FE00F064FA03B407
:1001D000FFF7F2FF03BC01F0CFFC0000224B1968CF
:1001E0000868B0E8F00F80F30988BFF36F8F4FF015
:1001F000000080F311884EF00D0E704700000000E3
:1002000006480068006880F3088862B661B6BFF3EC
:100210004F8FBFF36F8F00DF00BF00BF08ED00E01E
:10022000EFF30980BFF36F8F0F4B1A6820E9F00FCF
:10023000106008B54FF0BF0080F31188BFF34F8FF7
:10024000BFF36F8F02F0E0FB4FF0000080F31188E6
:10025000BDE8084019680868B0E8F00F80F3098825
:10026000BFF36F8F704700BF50000020EFF3058091
:10027000704700000948804709480047FEE7FEE74D
:10028000FEE7FEE7FEE7FEE7FEE7FEE7FEE7FEE746
:1002900004480549054A064B704700001916000836
:1002A00031010008B8F20020B8F80020B8F40020AE
:1002B000B8F40020704700000FB4044910B503AA39
:1002C000029800F0ADF910BC5DF814FB340000207A
:1002D0000FB41CB5074B06AA7B44694600900598ED
:1002E00000F06FF90020694600F07EF91CBC5DF853
:1002F00014FB00000D0300002DE9F0410E460446FA
:10030000002020622046E168884730B3252805D0C8
:10031000D4E901219047206A401CF2E7E1682046B9
:1003200000278847050018D0A5F14100192802D8F8
:1003300020354FF400673246294620462760FFF7F4
:1003400031FF40B1012804D0F61D26F0070608361B
:10035000D8E7361DD6E72846DAE7206ABDE8F081FF
:1003600070B50C460546012A05D02878800600D5D0
:10037000EA69002302E0012305E05B1C934202D2FC
:10038000E05C0028F9D1A869E618C01AA861286ABB
:10039000184428622846AFF3008004E0D5E9012123
:1003A00014F8010B9047B442F8D32846AFF300800D
:1003B00070BD00002DE9F041064600241068752943
:1003C000314616A510D0AFF30080002802DA404273
:1003D00013A507E031688A0701D512A502E0490795
:1003E00004D511A5012401E0AFF3008000210A2209
:1003F00006F1240709E0B0FBF2FCB0FBF2F302FBCC
:100400001C00303078541846491C0028F3D123468C
:100410002A463046BDE8F04100F074B80000000004
:100420002D0000002B000000200000004FF0000213
:1004300000B5134694469646203922BFA0E80C50DA
:10044000A0E80C50B1F12001BFF4F7AF090728BFB5
:10045000A0E80C5048BF0CC05DF804EB890028BF31
:1004600040F8042B08BF704748BF20F8022B11F05A
:10047000804F18BF00F8012B704700004FF0013C7F
:1004800050F8042B51F8043B9A4221D1A2EB0C0303
:10049000934313EACC1317D150F8042B51F8043BC3
:1004A0009A4215D1A2EB0C03934313EACC130BD160
:1004B00050F8042B51F8043B9A4209D1A2EB0C03EB
:1004C000934313EACC13DBD04FF00000704700BF1A
:1004D000D01A01BAB1FA81F101F0180122FA01F043
:1004E000CB40C1F12001DBB2C0B2C01A2CFA01F33B
:1004F000D11A914311EAC311E6D170477047704792
:10050000704770472DE9F0470D46994692460446DC
:1005100000F124080168880604D5E06921F0100183
:10052000216000E00120A84201DD471B00E0002718
:10053000A1697A1902EB0900081AA0612078C006A7
:1005400002D42046AFF30080002608E0D4E9012160
:100550001AF806009047206A401C761C20624E451F
:10056000F4DB2078C0060AD52046AFF3008006E011
:10057000D4E9012130209047206A401C2062381EB7
:10058000A7F10107F4DC07E0D4E9012118F8050020
:100590009047206A401C2062281EA5F10105F3DC6B
:1005A0002046AFF300802078000602D50220BDE887
:1005B000F0870120FBE7000001694A1C026108780E
:1005C000704700B58FB0CDE9013100210591054993
:1005D0007944CDE9031011466846FFF78DFE0FB050
:1005E00000BD0000E5FFFFFF0A6802F8010B0A608A
:1005F000704710B5436913B1AFF3008001E0FFF716
:10060000AFFE012010BD127800F124010A70002213
:100610004A700122EDE711684FF0FF32E9E7000070
:10062000074B70B50D467B44FFF7CBFF04462846C9
:1006300000F008F810B14FF0FF3070BD204670BDDB
:100640002B190000007B00F080007047754600F019
:100650002BF8AE4605006946534620F00700854654
:1006600018B020B5FFF714FEBDE820404FF000069B
:100670004FF000074FF000084FF0000B21F007018A
:10068000AC46ACE8C009ACE8C009ACE8C009ACE8CD
:10069000C0098D46704710B50446AFF30080204670
:1006A000BDE81040FFF793BD0048704758F20020A6
:1006B00010B5012000F020FC002000F01DFC10BD52
:1006C00008B50146002000900348009000980844B7
:1006D00000900098008808BD006C004008B500221A
:1006E0000092044A0092009A02440092009A11601B
:1006F00008BD0000006C004000BFFEE710B50024FC
:100700001548406820F47040134948600846406826
:1007100040F40040486004E0601CC4B2012001F0D5
:1007200047FB0E48006808B1C82CF5DBC82C01DB7C
:10073000012010BD002404E0601CC4B2012001F0BF
:1007400037FB0648006808B9F02CF5DBF02C01DB1C
:100750000120EEE70020ECE7002001402C012442BC
:100760002DE9F84F00F0CCF800F0A8F8FFF7C6FF2D
:10077000CC2000F0D1F8BE2000F0CEF800F08CF8CC
:10078000834600F089F80446072C08DDE043C4B234
:100790006FEA0B0000F0FF0B4FF0000A01E04FF092
:1007A000010AA1464FEA09200FFA80F909EB0B0074
:1007B0000FFA80F9484602F027FC009002F0F8FB9F
:1007C00007460022084B02F0F5FA054602F0C2FA8D
:1007D0000FFA80F9BAF1000F02D04846BDE8F88F51
:1007E000C9F1000000B2F9E70000E43F08B50121BB
:1007F000080200F071FB4FF40060ADF8000010201B
:100800008DF8030003208DF802006946064800F0C9
:10081000BEF84FF40061044800F046F900F04EF8CD
:10082000FFF76CFF08BD00000020014010B517481D
:10083000406820F47040154948600846406840F41C
:1008400040504860002012490860022001F0B0FAD0
:1008500001201049C1F8AC010C48406820F47040F8
:100860000A4948600846406840F4004048600C204F
:1008700001F09EFA06488038006808B1012400E0C3
:100880000024322001F094FA204610BD00200140DF
:10089000AC0124420000244270B50026012508E086
:1008A000FFF7C4FF0446E00140EA6600C6B2681CD8
:1008B000C5B2082DF4DD304670BD000010B50D48FE
:1008C000406820F470400B4948600846406840F496
:1008D0004050486000200849086040F2EE2001F0D6
:1008E00067FA01200549C1F8AC010F2001F060FA58
:1008F00010BD000000200140AC0124420000244251
:1009000010B5FFF7DBFFFFF7F9FECC2000F004F88D
:10091000442000F001F810BD70B504461848406846
:1009200020F47040164948600846406840F4405042
:100930004860012520E004F0010664106EB100203B
:1009400010490860022001F033FA01200E49C1F875
:10095000AC013C2001F02CFA0CE0002009490860B1
:100960003C2001F025FA01200749C1F8AC01022022
:1009700001F01EFA681CC5B2082DDCDD70BD000058
:1009800000200140AC0124420000244270472DE9C0
:10099000F041024600250026002000230024002705
:1009A00091F803C00CF00F0591F803C00CF0100C87
:1009B000BCF1000F03D091F802C04CEA050591F894
:1009C00000C0BCF1000F31D0146800202BE04FF0C4
:1009D000010C0CFA00F3B1F800C00CEA03069E42C9
:1009E00020D183004FF00F0C0CFA03F7BC4305FA3B
:1009F00003FC4CEA040491F803C0BCF1280F06D1B3
:100A00004FF0010C0CFA00FCC2F814C00AE091F897
:100A100003C0BCF1480F05D14FF0010C0CFA00FCEB
:100A2000C2F810C0401C0828D1D31460B1F800C02F
:100A3000BCF1FF0F34DD546800202EE000F1080CFB
:100A40004FF0010808FA0CF3B1F800C00CEA0306F5
:100A50009E4221D183004FF00F0C0CFA03F7BC43E8
:100A600005FA03FC4CEA040491F803C0BCF1280F1A
:100A700005D100F1080C08FA0CF8C2F8148091F8BE
:100A800003C0BCF1480F07D100F1080C4FF001087A
:100A900008FA0CF8C2F81080401C0828CED3546025
:100AA000BDE8F081416170470161704700BFFEE71A
:100AB00010B54FF400610948FFF7F6FF4FF480616D
:100AC0000648FFF7F1FF4FF480610448FFF7EAFFA3
:100AD0004FF400610148FFF7E5FF10BD000C014035
:100AE00010B54FF400610748FFF7DEFF4FF4806157
:100AF0000448FFF7D7FF4FF480610248FFF7D4FFA7
:100B000010BD0000000C014010B54FF40061044816
:100B1000FFF7CAFF4FF400610148FFF7C3FF10BDA4
:100B2000000C01400146CA1701EB92729210A1EB32
:100B3000820292B9642091FBF0F200FB121050B9CE
:100B40004FF4C87091FBF0F200FB121008B90120BD
:100B500070470020FCE70120FAE70020F8E70000DA
:100B600008B50121482000F0B7F92020ADF80000B9
:100B700010208DF8030003208DF802006946084814
:100B8000FFF705FF20210648FFF78EFF694605485D
:100B9000FFF7FDFE20210348FFF784FF08BD00009A
:100BA000000C01400018014000BFFEE77047000044
:100BB00070B5002100230F22C47804B3154C2468BB
:100BC00004F4E064C4F5E064210AC1F10403CA40FE
:100BD000447804FA03F184781440214309010E4C4F
:100BE0000678A155047804F01F050124AC4005786F
:100BF0006D11AD0005F1E025C5F8004109E004786C
:100C000004F01F050124AC40044D0678761145F828
:100C1000264070BD0CED00E000E400E080E100E063
:100C200002490143024A1160704700000000FA05C2
:100C30000CED00E070B5002418E004F1B0000021D4
:100C400000F027F90021084600F023F900211020C8
:100C500000F01FF9002505E00121002000F019F93E
:100C6000681CC5B2802DF7DB601CC4B2082CE4DB25
:100C700070BD000008B50121082000F02DF94FF4E7
:100C80004060ADF8000010208DF8030003208DF8BF
:100C9000020069463C48FFF77AFE4FF440613A484B
:100CA000FFF702FF4FF4487001F062F80021AE2018
:100CB00000F0EFF80021084600F0EBF800211020CA
:100CC00000F0E7F80021402000F0E3F80021B02018
:100CD00000F0DFF80021812000F0DBF80021FF2088
:100CE00000F0D7F80021A12000F0D3F80021A620C1
:100CF00000F0CFF80021A82000F0CBF800213F2021
:100D000000F0C7F80021C82000F0C3F80021D3206C
:100D100000F0BFF80021084600F0BBF80021D52004
:100D200000F0B7F80021802000F0B3F80021D820AF
:100D300000F0AFF80021052000F0ABF80021D92029
:100D400000F0A7F80021F12000F0A3F80021DA203C
:100D500000F09FF80021122000F09BF80021DB201A
:100D600000F097F80021302000F093F800218D204A
:100D700000F08FF80021142000F08BF80021AF2044
:100D800000F087F808BD0000000C014070B5044673
:100D90000D4605F1B000002100F07BF8102141EA7A
:100DA0001410002100F075F804F00F00002100F08D
:100DB00070F870BD2DE9F04707460E4690469946FB
:100DC00000250024A8F12000C5B27F2F02DD0027F6
:100DD000B01CC6B2B9F1100F24D131463846FFF726
:100DE000D5FF002408E004EB0511194A505C0121ED
:100DF00000F04FF8601CC4B2082CF4DB701CC1B2C8
:100E00003846FFF7C3FF002409E004EB0511083161
:100E10000F4A505C012100F03CF8601CC4B2082C61
:100E2000F3DB12E031463846FFF7B0FF00240AE05A
:100E300005EB4501074A02EB4101085D012100F085
:100E400028F8601CC4B2062CF2DBBDE8F087000075
:100E5000EC320008C43000082DE9F04104460F468A
:100E60001546984600260FE0AA5D434639462046BF
:100E7000FFF7A0FF04F10800C4B2782C02DD0024C3
:100E8000B81CC7B2701CC6B2A85D0028ECD1BDE882
:100E9000F08170B504460D461DB1E0B200F056FE7B
:100EA00002E0E0B200F03CFE70BD000001490862C3
:100EB0007047000000000E4229B1064AD269024381
:100EC000044BDA6104E0034AD2698243014BDA61E0
:100ED000704700000010024029B1064A926902439F
:100EE000044B9A6104E0034A92698243014B9A6180
:100EF0007047000000100240014908607047000080
:100F00004004424230B500210022002400232D4D30
:100F10006D6805F00C0121B1042905D0082923D101
:100F200005E0294D056022E0274D05601FE0254DB5
:100F30006D6805F47012234D6D6805F48034022548
:100F400005EB92421CB9214D554305600BE01D4D48
:100F50006D6805F400351DB11C4D5543056002E078
:100F6000194D5543056002E0174D056000BF00BFF5
:100F7000144D6D6805F0F0010909154D6B5C0568AD
:100F8000DD4045600F4D6D6805F4E061090A104DC4
:100F90006B5C4568DD4085600A4D6D6805F4605105
:100FA000C90A0B4D6B5C4568DD40C560054D6D6839
:100FB00005F44041890B074D6B5CC568B5FBF3F543
:100FC000056130BD0010024000127A0000093D00AA
:100FD0003A0000204A00002010B5014600220023FC
:100FE00000204A11012A02D1094C236806E0022A96
:100FF00002D1074C236A01E0054C636A01F01F022D
:10100000012494401C400CB1012000E0002010BDE0
:101010000010024000210B4A11700A4A203A82F85F
:101020002010012802D0042808D103E00121054A3C
:10103000117004E00521034A117000E000BF00BFF9
:10104000704700002010024001490860704700000E
:101050003C0442420249096A0143014A1162704755
:1010600000100240024909888143014A11807047FB
:10107000042800400348008840F01000014908801F
:101080007047000004280040034800884FF6EF71C5
:1010900008400149088070470428004070B50026C8
:1010A0000024002500F07AF806463848B6FBF0F434
:1010B00037480088A0423CD035490C8040F2B275D8
:1010C00010E02846FFF72EFD40B1B4F5B77F02D3FC
:1010D000A4F5B77404E0681C85B206E0A4F26D14B0
:1010E000681C85B2B4F5B67FEBD800BF294885806F
:1010F000002516E027498888FFF714FD30B1012D3F
:1011000004D11D2C01D31D3C09E00CE02248405DB8
:10111000A04203D82048405D241A00E003E0681C88
:1011200085B21C2CE6D200BF681C1A498871601C6D
:10113000C8711648B6FBF0F100FB11644FF4616012
:10114000B4FBF0F0134908704FF46160B4FBF0F1A8
:1011500000FB11403C21B0FBF1F00E4948704FF408
:101160006160B4FBF0F100FB11403C21B0FBF1F2F7
:1011700001FB1200074988700B46DA799979988843
:1011800000F028F803490872002070BD805101006A
:101190002C000020BC000020E83800080021034893
:1011A0000188001F008841EA004070471C28004069
:1011B00001460020064A12880A40D0B2044A121F93
:1011C00012880A4012B108B1012000E000207047E7
:1011D00004280040F0B503460C461546642093FBF6
:1011E000F0F0C6B2642093FBF0F700FB1730C1B2F9
:1011F000132E02DD01F16400C1B20846CF1701EBE6
:10120000977701EBA707BAB2072092FBF0F700FB34
:10121000172082B25719601EDFF82CC01CF800009E
:10122000384482B2CF1701EB9777BF10A1EB870745
:101230001FB9032C01DA501E82B2072092FBF0F78F
:1012400000FB1720C0B2F0BDDC3800080EB501204D
:10125000FFF7AEFF08B1FFF721FF0220FFF7A8FF5D
:10126000A0B10220FFF7FEFEFFF718FF0A488078C2
:1012700009494978084A1278CDE9002102900648C8
:10128000C3798279818805A0FFF716F80520FFF75A
:10129000E9FE00F015F90EBDBC000020416C617242
:1012A0006D2054696D653A25642D25642D256420D3
:1012B00025643A25643A25640A00000029B1064AEB
:1012C00012880243044B1A8004E0034A12888243C6
:1012D000014B1A8070470000002800401CB5002414
:1012E00001214FF0C050FFF7E7FD0120FFF7DEFDC1
:1012F0000420FFF7E5F945F25101884240D0FFF79D
:10130000D7F90120FFF786FE04E0601CC4B20A2072
:1013100000F02EFD4120FFF75FFE08B9FA2CF4DB48
:10132000FA2C01DB01201CBD4FF48070FFF792FE08
:101330000120FFF789FE00F0C3F800F0CBF801218F
:101340000846FFF7BBFF00F0BBF8FFF793FE47F638
:10135000FF7000F0A5F800F0B3F800201E21142360
:101360000222CDE900100C2140F2E47000F026F8D2
:10137000FFF78AFE45F251010420FFF7AFF907E0BD
:1013800000F0A8F801210846FFF798FF00F098F850
:1013900000F004F8FFF782FE0020C4E708B5032040
:1013A0008DF8000000208DF801008DF8020001206A
:1013B0008DF803006846FFF7FBFB08BD2DE9F05FE1
:1013C00006460F4690469946DDE90AAB002440F2F6
:1013D000B270864203DB40F63300864202DD012014
:1013E000BDE8F09F40F2B2750AE02846FFF79AFB8D
:1013F00010B12048044401E01F480444681C85B231
:10140000B542F2DB781EC7B2002510E01B48405DF4
:1014100040F2A321484304EBC0143046FFF782FB9F
:1014200018B1012D01D116480444681C85B2BD4293
:10143000ECDBA8F1010040F2A321484304EBC01407
:10144000C9EB4910C0EB092004EB0014CAEB0A10E9
:1014500004EB80045C4401214FF0C050FFF72CFDE9
:101460000120FFF723FD204600F00CF800F028F8DB
:101470000020B5E70085E2018033E101E83800088B
:101480008051010000B50246FFF7F4FD100C03493E
:101490000880091D0A80FFF7F7FD00BD18280040ED
:1014A00000B50246FFF7E6FDC2F30340034908809A
:1014B000091D0A80FFF7E8FD00BD00000828004074
:1014C00000BF0348008800F020000028F9D07047D2
:1014D00004280040074800884FF6F7710840054986
:1014E000088000BF0348008800F008000028F9D0F9
:1014F000704700000428004010B500F001F810BD4E
:101500000CB50020019000903348006840F4803012
:101510003149086000BF3048006800F40030009096
:101520000198401C0190009818B90198B0F5A06F7F
:10153000F1D12948006800F4003010B1012000907A
:1015400001E0002000900098012843D12348006862
:1015500040F01000214908600846006820F00300B0
:1015600008600846006840F0020008601A484068B9
:10157000194948600846406848600846406840F499
:10158000806048600846406820F47C104860084647
:10159000406840F4E81048600846006840F08070F9
:1015A000086000BF0C48006800F000700028F9D007
:1015B0000948406820F00300074948600846406831
:1015C00040F00200486000BF0348406800F00C0093
:1015D0000828F9D10CBD0000001002400020024094
:1015E000042808D14FF0E021096941F004014FF0CF
:1015F000E022116107E04FF0E021096921F00401C8
:101600004FF0E0221161704710B501F091FA012806
:1016100001D001F043FA10BD10B51348006840F046
:1016200001001149086008464068104908400E4909
:101630004860084600680E4908400B4908600846A3
:10164000006820F4802008600846406820F4FE000E
:1016500048604FF41F008860FFF74EFF4FF00060B6
:101660000449086010BD0000001002400000FFF8AF
:10167000FFFFF6FE08ED00E030B589B005460C46E8
:1016800001210220FFF718FC01210420FFF724FCB0
:101690008020ADF8200018208DF8230003208DF85D
:1016A000220008A91348FFF772F9ADF81850ADF8F9
:1016B00014400020ADF81A00ADF8160005A90E4838
:1016C00000F09AF86020ADF804000120ADF80600A3
:1016D0000020ADF80C0001A9074800F02BF8082104
:1016E000054800F079F80121034800F016F809B028
:1016F00030BD0000000801400004004030B5002368
:1017000001248C40A3B2048C9C430484048C02FA10
:1017100001F5ADB22C43048430BD21B1028842F002
:101720000102028004E002884FF6FE731A40028034
:101730007047000070B5002400220023058C4FF68E
:10174000EF7635400584028C8388048B48F6FF755C
:101750002C404FF6FF452C400D884FF6FF7606EAE9
:1017600005252C434FF6DF752A400D8906EA05153D
:101770002A434D8806EA05152A43154DA84202D092
:10178000144DA8421DD14FF67F752A404D894FF662
:10179000FF7606EA05152A434FF6BF752A408D8865
:1017A00006EA05152A434FF6FF352B404FF2FF7529
:1017B0002B408D8906EA85052B43CD8906EA8505F0
:1017C0002B4383800483CD880587028470BD00008D
:1017D000002C0140003401400A460021018B4FF2E9
:1017E000FF7319404FF6FF7303EA02231943018385
:1017F0007047018770470000002202881D4B984205
:101800000ED01D4B98420BD0B0F1804F08D01B4B2F
:10181000984205D01A4B984202D01A4B984204D1F4
:101820004FF68F731A404B881A43174B984207D0D4
:10183000164B984204D04FF6FF431A40CB881A4308
:1018400002808B8883850B8803850A4B98420BD0D6
:10185000094B984208D00E4B984205D00D4B984248
:1018600002D00D4B984201D10B7A0386012383826B
:1018700070470000002C014000340140000400408B
:1018800000080040000C0040001000400014004020
:1018900000400140004401400048014010B540F2C2
:1018A00025511D4800F04AF810B31B4800F002F91A
:1018B000C4B21A48008800F40040C8B9174800882C
:1018C00000F4804060B10A2C03D000201349088046
:1018D00020E01248008840F400401049088019E0D8
:1018E0000D2C06D10D48008840F480400B4908803B
:1018F00010E00A480088C0F30D0009490C5407485D
:101900000088401C0549088008460088C72801DD7A
:101910000020088010BD0000003801403800002081
:10192000C600002021B1828942F40052828104E085
:1019300082894DF6FF731A408281704770B5024666
:10194000002400230025002040F66A16B14200D191
:1019500000BFC1F3421501F01F03012606FA03F38D
:10196000012D02D19689334006E0022D02D1168A5C
:10197000334001E0968A33400C12012606FA04F443
:101980001688344013B10CB1012000E0002070BD76
:10199000F0B50346002400260025002040F66A1713
:1019A000B94200D100BF1846C1F3421401F01F062E
:1019B000012707FA06F5012C01D10C3004E0022CB6
:1019C00001D1103000E014301AB107682F430760CE
:1019D00002E00768AF430760F0BD00002DE9F04763
:1019E00086B005460E460024A24600BFA146002749
:1019F000B08900B100BF2F462C8A4CF6FF7004401E
:101A0000F08804432C82AC894EF6F3100440B08871
:101A100031890843718908430443AC81AC8A4FF68D
:101A2000FF400440B0890443AC8201A8FFF76AFA82
:101A30001F48874202D1DDF810A001E0DDF80CA0BC
:101A4000A88900F4004040B10AEBCA0000EB0A107C
:101A500031684900B0FBF1F807E00AEBCA0000EB7F
:101A60000A1031688900B0FBF1F86420B8FBF0F08F
:101A700004012009642101FB1089A88900F40040B9
:101A800040B1322000EBC900B0FBF1F000F00700DC
:101A9000044308E0322000EB09106421B0FBF1F0B0
:101AA00000F00F0004432C8106B0BDE8F087000071
:101AB0000038014001468888C0F30800704700BF25
:101AC000FEE700002DE9F04105462C464FF4006189
:101AD0001248FEF7E7FF00261CE0274607F08007C4
:101AE000802F04D1F9000D48FEF7DEFF04E04FF42B
:101AF00080610A48FEF7D6FF6006040E4FF40061CD
:101B00000648FEF7D1FF4FF400610448FEF7CAFF14
:101B1000701CC6B2082EE0DBBDE8F081000C01406D
:101B200010B50446FEF7C4FF7820FFF7CBFFFEF7A1
:101B3000EBFF0020FFF7C6FFFEF7E6FF2046FFF7AA
:101B4000C1FFFEF7E1FFFEF7CBFF10BD10B5044665
:101B5000FEF7AEFF7820FFF7B5FFFEF7D5FF402078
:101B6000FFF7B0FFFEF7D0FF2046FFF7ABFFFEF711
:101B7000CBFFFEF7B5FF10BD00BF704786B0002455
:101B8000142101A8FEF752FC00BF4848008800F469
:101B90000040B0B1012445480088C0F30D0600257F
:101BA00005E04348405D01A94855681C85B2B5422F
:101BB000F7DB01A93FA0FEF77FFB00203B4908802F
:101BC00000E000246CB13FA101A8FEF757FC40B92A
:101BD0003E48007808B9012000E000203B49087029
:101BE0005AE05CB13948007840B939A101A8FEF744
:101BF00045FC18B90120384908704DE05CB1334804
:101C0000007840B935A101A8FEF738FC18B90020CA
:101C10003149087040E0ECB12C480078D0B931A1CE
:101C200001A8FEF72BFCA8B9304800881E302F49C8
:101C3000088008460088B0F52F7F03DB4FF42F7033
:101C4000088029E0294800880A2825DB012022494C
:101C5000087021E0B4B11D48007898B924A101A80A
:101C6000FEF70CFC70B9214800881E381F49088017
:101C7000084600881E280FDC1E2008800020164918
:101C8000087009E044B11DA101A8FEF7F7FB18B9DF
:101C90001D491EA0FEF710FB1CB1314601A8FEF73E
:101CA000C5FB642000F064F86FE7000038000020F6
:101CB000C6000020436F6D6D616E6420697320253E
:101CC000730D0A004D6F64650000000015000020D0
:101CD00046616E4F6E0000001400002046616E4F9A
:101CE000666600005370656564557000160000203C
:101CF0005370656564446F776E00000047657454E7
:101D0000656D706572000000A800002025730D0A43
:101D10000000000010B50420FFF762FC10480068C6
:101D20001049B0FBF1F0104908700D4800680D49EA
:101D3000B0FBF1F44FF47A70444301200B49088062
:101D40004FF0E020006940F002004FF0E021086110
:101D500008464461006940F00100086110BD0000C0
:101D60001800002040420F002E000020300000200C
:101D700070B5044600F0DCFE012810D00B48008846
:101D8000844206D309480088B4FBF0F5284600F0E9
:101D900081FD06480088B4FBF0F100FB11444FF4CC
:101DA0007A7104FB01F000F003F870BD30000020F0
:101DB00070B5034600224FF0E02675690D4E367867
:101DC00003FB06F44FF0E026B16910E04FF0E02687
:101DD000B06988420BD0884202D20E1A324402E027
:101DE0002E1A0E4432440146A24200D300E0EDE731
:101DF00000BF70BD2E00002086B0002500241421F5
:101E000001A8FEF713FB00BFFEF7AAFC04460A2058
:101E100094FBF0F100FB114694FBF0F733463A4691
:101E200038A13D48FEF754FA10233B4A0621002012
:101E3000FFF712F839488078A8425ED03748857895
:101E4000C079009035488379828835A101A8FEF7D2
:101E50003FFA32488078009030484378027833A1C6
:101E60000DF10E00FEF734FA102301AA0221002022
:101E7000FEF7F2FF10230DF10E0204212020FEF7E1
:101E8000EBFF2648007A072836D2DFE800F0040B83
:101E9000121920272E00102327A202215A20FEF714
:101EA000DBFF29E0102325A202215A20FEF7D4FFF0
:101EB00022E0102322A202215A20FEF7CDFF1BE0D0
:101EC000102320A202215A20FEF7C6FF14E010239F
:101ED0001DA202215A20FEF7BFFF0DE010231BA216
:101EE00002215A20FEF7B8FF06E0102318A20221B3
:101EF0005A20FEF7B1FF00BF00BF4FF47A70FFF722
:101F000037FF81E774656D7020203D3D20202564FA
:101F10002E25642043000000A8000020BC00002003
:101F200025642D25642D25640000000025643A25D4
:101F3000643A25640000000053756E004D6F6E001A
:101F400054756500576564005468750046726900F1
:101F50005361740000BF054A128802F04002002A53
:101F6000F9D0C2B2014B1B1D1A80704700380140E6
:101F700000BF0B48006808B9012000E000200849B4
:101F800008600848D0F8940108B9012000E000205A
:101F9000054908604FF4FA70FFF7EAFEE9E7000030
:101FA0009481214200002342940123421CB54FF446
:101FB0004070FEF735FE4FF4E13000F081FBFFF793
:101FC000A9FEFEF7CDFDFEF755FEFFF787F900BF2E
:101FD000FEF70CFC0028FBD1642140F2CF20FFF774
:101FE0004BFBFEF727FE0748012100238022CDE9A5
:101FF000001005A1074800F06BFD00F0CBFC0020AD
:102000001CBD00000000002073746172745F746175
:10201000736B0000FD2500082DE9F04105460E46D2
:102020001C4807681C480068001D00F099FB50B967
:102030001948006890F82C10012088401749096859
:10204000814316480160681C38B936B112480168EE
:10205000091D134800F0C2FB1AE07C190E48006805
:102060004460BC4207D20C480168091D0D48006855
:1020700000F09AFB0CE008480168091D0A48006856
:1020800000F092FB09480068844201D207480460CE
:10209000BDE8F081640000205000002068000020AE
:1020A000440200205800002054000020800000203E
:1020B00010B5044600F09EFB23480068401C2249EE
:1020C00008602248006840B920480460084600685B
:1020D00001280DD100F014F90AE01D48006838B954
:1020E0001A480068C06AE16A884201D8174804604B
:1020F00018480068401C1749086094F82C1001200B
:10210000884015490968084313490860E16A01EBF2
:102110008101124A02EB8100211D00F05FFB00F0FB
:102120007BFB0B48006868B108480068C06AE16A38
:10213000884207D24FF0805009490860BFF34F8FA3
:10214000BFF36F8F10BD0000600000205000002022
:102150006C0000207C00002068000020900100201E
:1021600004ED00E070B523E000F046FC1348006881
:1021700008B9012000E00020054600F077FDBDB958
:1021800000F038FB0D48C068C468201D00F0E8FA74
:102190000B480068401E0A4908600A480068401E53
:1021A0000849086000F038FB204600F00DF800BF39
:1021B000044800680028D7D170BD0000300200201C
:1021C000600000205C00002010B50446206B00F089
:1021D00033FB204600F030FB10BD000030B54FF45B
:1021E0007043174800F007042CB1C01D20F0070011
:1021F000134C041B1B1B0246124C22600024114D81
:102200006C60D018083820F007000F4C20600024C4
:102210000D4D2D686C600C4D2D682C601146441AD4
:102220004C60094C24680C60084D4C682C60084DCB
:102230004C682C604FF00044064D2C6030BD00000F
:10224000580200208C000020940000209C000020F8
:1022500098000020A000002000BFFFF783FF064881
:1022600000680128F9D94FF0805004490860BFF395
:102270004F8FBFF36F8FF0E79001002004ED00E077
:102280002DE9FF5F80460E469146DDE90E7A109CEF
:10229000A9F10100216B01EB800B2BF0070B00254E
:1022A00007E0715D04F134004155705D00B902E052
:1022B0006D1C102DF5D300BF002143200155052FC3
:1022C00000D30427E762201D00F06BFA04F1180028
:1022D00000F067FA2461C7F10500A0616462002084
:1022E000606484F8480041465846039A00F0FEF8BE
:1022F0002060BAF1000F01D0CAF80040BDE8FF9F8E
:1023000010B5002407E004EB84010F4A02EB8100C2
:1023100000F03AFA641C052CF5D30C4800F034FAAE
:102320000B4800F031FA0B4800F02EFA0A4800F092
:102330002BFA0A4800F028FA0448094908600448C2
:102340000849086010BD000090010020F401002041
:10235000080200201C02002030020020440200205D
:10236000540000205800002010B50146164800E037
:10237000006803688B42FBD30246436813448B42D8
:1023800004D143684C682344436001460A464B68C5
:1023900013440468A34211D10C4C03682468A3427F
:1023A00008D04B680468646823444B6003681B686A
:1023B0000B6005E0054B1B680B6001E003680B60D8
:1023C000884200D0016010BD8C00002094000020E5
:1023D0000A490968096809B9012100E0002121B111
:1023E0004FF0FF31064A116006E004490968C968E8
:1023F000C868034A4168116070470000540000201B
:102400008000002000BFBF2080F31188BFF34F8FF2
:10241000BFF36F8F00BF00BFFEE700002DE9F04162
:1024200005464FF0000800F0E7FA2B48006808B9AD
:10243000FFF7D4FE294800682840002847D145B15D
:10244000083505F0070020B105F00700C0F10800CD
:102450000544002D3BD022480068854237D8214EE4
:102460003046046801E0264624686068A84202D22B
:1024700020680028F7D118480068844227D03068C7
:1024800000F10808206830606068401B102807D9F8
:1024900067196068401B786065603846FFF764FF25
:1024A0000F4960680968081A0D4908600846006805
:1024B0000D490968884203D2094800680A49086042
:1024C000064960680968084360600020206000F0E9
:1024D000CDFB4046BDE8F08194000020A000002024
:1024E000980000208C0000209C000020001F4FF06E
:1024F00080730360001F21F001030360001F034B82
:10250000036014380260203870470000052400087A
:102510000025002400BFFEF723F904462448007874
:1025200010B3102323A200210846FEF795FCC82C07
:1025300014DB012204212448FFF7E0F8B4F5AA7F58
:1025400001DB4FF4AA74A4F1C80000EB80000A304C
:1025500085B229461C48FFF74CF924E000220421EB
:102560001948FFF7CBF81EE01848007880B1102317
:1025700017A200210846FEF76FFC01220421124831
:10258000FFF7BCF8174801880F48FFF732F90AE057
:10259000002204210C48FFF7B1F8102312A20021F9
:1025A0000846FEF759FC6420FFF7E2FBB3E70000A2
:1025B000150000206D6F6465203D3D202020617571
:1025C000746F202000000000000400401400002070
:1025D0006D6F6465203D3D2068616E64206F6E20E4
:1025E00000000000160000206D6F6465203D3D2056
:1025F00068616E64206F6666000000001CB50446CA
:1026000000F0F8F81748022100238022CDE90010DD
:1026100015A1184800F05CFA1748032100234FF475
:102620008072CDE9001015A1184800F051FA184841
:10263000042100238022CDE9001016A1184800F0E3
:1026400047FA1848052100238022CDE9001016A181
:10265000194800F03DFA1948006800F035F900F01B
:10266000DBF81CBD040000206C65643020746173CD
:102670006B000000711F000808000020646973707F
:102680006C6179207461736B00000000F91D000813
:102690000C0000207370656564207461736B00002A
:1026A0001125000810000020626C7565746F6F744E
:1026B00068207461736B00007D1B0008000000201F
:1026C00010B586B00446012144F20400FEF704FC74
:1026D0004FF40070ADF8140003208DF81600182098
:1026E0008DF8170005A91C48FEF751F94FF48060DA
:1026F000ADF8140004208DF8170005A91648FEF760
:1027000046F925208DF8000003208DF801008DF892
:10271000020001208DF803006846FEF749FA019493
:102720000020ADF80800ADF80A00ADF80C00ADF8D7
:1027300010000C20ADF80E0001A90848FFF74EF973
:10274000012240F225510548FFF722F901210348F3
:10275000FFF7E8F806B010BD00080140003801405E
:1027600001460A69D1E901309860D1E90103586056
:102770005068884201D18868506000200861106864
:10278000401E10601068704700F1080141604FF072
:10279000FF31816000F10801C16001610021016029
:1027A000704700210161704710B502460B685C1C40
:1027B0000CB9106907E002F1080000E040684468C5
:1027C00024689C42FAD944684C604C68A1608860D7
:1027D00041600A611468641C146010BD42684A605C
:1027E00093688B60936859609160086103685B1C13
:1027F0000360704700BFBF2080F31188BFF34F8F85
:10280000BFF36F8F00BF03480068401C0149086098
:1028100070470000A400002006480068401E0549DB
:1028200008600846006820B9002080F3118800BFC6
:1028300000BF7047A400002070B506463546D6B1EB
:10284000083D2C460C4960680968084098B120682A
:1028500088B90949606809688843606000F0CCF86D
:102860000649606809680844044908602046FFF783
:102870007BFD00F0FBF970BDA00000209800002057
:1028800003484FF0E02148610720086170470000CD
:102890003F19010070B50446002544B100F0ACF8C2
:1028A00000212046FFF7B8FB00F0E0F905463DB9EE
:1028B0004FF0805003490860BFF34F8FBFF36F8F15
:1028C00070BD000004ED00E070B50546FFF792FF13
:1028D00015B92748006800E028460446201DFFF788
:1028E0003FFF78B9E06A00EB8000224951F82000F0
:1028F00040B994F82C10012088401F490968814391
:102900001D480160A06A18B104F11800FFF728FF04
:102910001A480068401C194908601548006884423C
:1029200009D1211D1648FFF759FF16480068401CC1
:102930001449086009E014480068401E1249086004
:102940002046FFF741FCFFF743FDFFF765FF0F4807
:10295000006858B106480068844207D14FF08050A3
:102960000B490860BFF34F8FBFF36F8F70BD00003E
:102970005000002090010020680000207C00002012
:10298000300200205C000020600000206C0000206D
:1029900004ED00E01CB5114800210B468022CDE972
:1029A00000100FA1104800F093F80446012C14D138
:1029B00000BFBF2080F31188BFF34F8FBFF36F8F2D
:1029C00000BF4FF0FF300949086001200849086046
:1029D00000200849086000F047F81CBD8400002072
:1029E00049444C45000000005922000880000020A6
:1029F0006C0000206400002002480068401C01496F
:102A000008607047880000201248006818B1012053
:102A1000114908601DE000200F4908600F48006858
:102A2000B0FA80F0C0F11F0101EB81020C4B03EB07
:102A3000820042685268426000F108024368934293
:102A400002D14268526842604268D268054B1A60FF
:102A500000BF70478800002074000020680000203C
:102A6000900100205000002010B50A48006840F492
:102A70007F00084908600846006840F07F40086011
:102A8000FFF7FEFE002004490860FDF7B9FB0020B7
:102A900010BD000020ED00E0A400002010B500BF34
:102AA000BF2080F31188BFF34F8FBFF36F8F00BF3C
:102AB00000F04EF818B14FF080500449086000BF94
:102AC000002080F3118800BF10BD000004ED00E07D
:102AD0002DE9FF4F85B0804689461746DDE912ABE8
:102AE000B800FFF79BFC064656B14C20FFF796FC5A
:102AF00004460CB1266304E03046FFF79DFE00E07B
:102B000000247CB10020CDE900ABCDE902403A467B
:102B100049464046089BFFF7B3FB2046FFF7C8FA3B
:102B2000012501E04FF0FF35284609B0BDE8F08FE0
:102B30000549096809B9012005E00449096809B98E
:102B4000022000E0002070476C0000208800002078
:102B50002DE9F04100273A480068002863D1394840
:102B60000068451C374805608DB93748D0F80080AB
:102B700036480068344908603448C0F8008034485A
:102B80000068401C32490860FFF722FC00BF314852
:102B9000006885423BD300BF2B480068006808B935
:102BA000012000E0002020B14FF0FF3029490860EB
:102BB0002CE025480068C068C4686668B54202D247
:102BC0002448066022E0201DFFF7CAFDA06A18B164
:102BD00004F11800FFF7C4FD94F82C100120884080
:102BE0001D49096808431C490860E16A01EB81013D
:102BF0001A4A02EB8100211DFFF7F0FD1849E06A37
:102C00000968C96A8842C7D30127C5E700BF1448CD
:102C10000068C06A00EB8000104951F820000128CC
:102C200000D9012704E00F480068401C0D490860E6
:102C30000D48006800B101273846BDE8F08100006A
:102C4000880000206400002054000020580000206C
:102C50007800002080000020680000209001002003
:102C600050000020700000207400002070B5002487
:102C70000026FFF7BFFD2E480068401E2C49086063
:102C80000846006800284FD12A48006800284BD029
:102C900024E02948C068C46804F11800FFF760FD0B
:102CA000201DFFF75DFD94F82C100120884023497A
:102CB0000968084321490860E16A01EB8101204A63
:102CC00002EB8100211DFFF789FD1E49E06A0968BA
:102CD000C96A884202D301201B490860164800686F
:102CE00008B9012000E000200028D2D00CB1FFF785
:102CF0006FFB1648056865B100BFFFF729FF10B1EB
:102D00000120114908606D1E002DF6D100200F49E9
:102D100008600D48006838B1012630070C4908608A
:102D2000BFF34F8FBFF36F8FFFF776FD304670BD57
:102D300088000020600000201C02002068000020A5
:102D4000900100205000002074000020700000203E
:102D500004ED00E04FEA41034FEA5353A3F58063CB
:102D6000D3F11E03C8BFD3F1210C0CDD4FF000429C
:102D700042EAC12242EA505232FA03FC8CEAE17C78
:102D8000ACEBE1707047102BC4BF0020704703F517
:102D9000787CBCF1FF3F04D06FF0004282EA210052
:102DA000704770B500F0B0F8499224800020704759
:102DB000F2E70000DFF848C170B51CEA111E1EBF23
:102DC0001CEA13159EEA0C0F95EA0C0F00F06F80B9
:102DD00081EA030423EA4C134EEAD47E21EA4C1123
:102DE00041F4801143F48013AE44A1FB024CA0FBDC
:102DF0000365AEF17F7E361955EB0C05A1FB034C44
:102E00004CF10003A0FB021C16EB0C06654153F1CC
:102E10000003094218BF46F0010613F4007F0BD1EE
:102E20004FEA03314FEA0530340341EA155140EAD5
:102E300016506FF003020AE04FEAC3214FEAC520A3
:102E4000F40241EA555140EA56506FF0020202EB9B
:102E50002E4201EB025585EACE710AD05FEA440C9E
:102E600018BF24F0004450F1000041F1000120EAB5
:102E7000D47040F2FE7C624500D270BDA84214BFFF
:102E80004FF080444FF04044002E08BF0024BEF1B4
:102E9000806FA8BFA1F1C041BDE8704080F2828080
:102EA0004FF0000001F1C04101F0004170479EEA7F
:102EB0000C0F0CEA131518BF95EA0C0F06D04FF053
:102EC000000081EA030E0EF0004170BD00F01CF816
:102ED0008900013E00F007B800F009B84FEA430C42
:102EE0005FEA5C5C08D081EA030100F05BB84FEA5E
:102EF000410C5FEA5C5CF6D14FF00000014970477D
:102F00000000FF070000F87F0EF1020E2EF0030E06
:102F10005EF8046B364205D4012A43EB030515F530
:102F2000001F12D8012841EB010C1CF5001F0CD822
:102F30000ED14FEAD17C15F5001F0CEB4C0C0CF1B7
:102F4000020C08BF4CEBD37C04E04FF0080C01E00E
:102F50004FEAD37C0CEB4C0526FA05F606F0070683
:102F6000B6F1040C06D20EEB860CBDE870404CF0B6
:102F7000010C6047DFE80CF0090B02024FF0004142
:102F80004FF00000A1F5002170BD19461046012840
:102F900051EB010418BFD4F5001484BF002001F0E8
:102FA000004170BD0808A0F500114FEA31017047DB
:102FB00043004FEAD30C4FEA3C0C43401FBF40078D
:102FC0000CF1605113F0FE4F70471CF0006F03D1FD
:102FD00000200CF0004170470CF0004343EA5070B1
:102FE00010B540EACC0000F027F800BF00000092C6
:102FF0004FEA0001FFF7D6BF4FF000414FF000004D
:10300000A1F500217047000010F0004148BF404288
:10301000B0FA80F310FA03F2C3F19D030BD051EA2A
:10302000C35101EB1220530638BF704700F1010075
:1030300008BF20F0010070470EF1020E2EF0030EC3
:103040005EF8044B244204D44FEA4102B2F17F4FB0
:1030500011D84FEA4003B3F17F4F0CD80ED14FEA9D
:10306000D07CB2F17F4F0CEB4C0C0CF1020C08BF82
:103070004CEBD17C04E04FF0080C01E04FEAD17C2E
:103080000CEB4C0324FA03F404F00704B4F1040C31
:1030900006D20EEB840CBDE810404CF0010C6047EA
:1030A000DFE80CF0070802024FF00040A0F58000B6
:1030B00010BD0846420018BFD2F1807288BF00F0F0
:1030C000004010BD0000000000000000002F0000C4
:1030D00000000700070000147F147F1400242A7FDB
:1030E0002A1200626408132300364955225000005A
:1030F0000503000000001C224100000041221C00CA
:103100000014083E08140008083E0808000000A04B
:103110006000000808080808000060600000002047
:1031200010080402003E5149453E0000427F400025
:10313000004261514946002141454B3100181412AB
:103140007F10002745454539003C4A494930000178
:103150007109050300364949493600064949291EC7
:103160000000363600000000563600000008142229
:103170004100001414141414000041221408000229
:103180000151090600324959513E007C1211127C4E
:10319000007F49494936003E41414122007F41417B
:1031A000221C007F49494941007F09090901003E6D
:1031B0004149497A007F0808087F0000417F4100AB
:1031C000002040413F01007F08142241007F404021
:1031D0004040007F020C027F007F0408107F003E09
:1031E0004141413E007F09090906003E4151215EEF
:1031F000007F091929460046494949310001017FEC
:103200000101003F4040403F001F2040201F003F81
:103210004038403F00631408146300070870080733
:1032200000615149454300007F41410000552A5546
:103230002A55000041417F000004020102040040C1
:1032400040404040000001020400002054545478E3
:10325000007F484444380038444444200038444403
:10326000487F00385454541800087E0901020018A1
:10327000A4A4A47C007F080404780000447D4000DE
:10328000004080847D00007F102844000000417FC2
:103290004000007C04180478007C0804047800389E
:1032A0004444443800FC242424180018242418FC26
:1032B000007C0804040800485454542000043F448F
:1032C0004020003C4040207C001C2040201C003C52
:1032D0004030403C004428102844001CA0A0A07CA2
:1032E000004464544C4414141414141400000000DA
:1032F000000000000000000000000000000000F8D6
:1033000000000000000000333000000000100C0638
:10331000100C0600000000000000000040C07840D3
:10332000C0784000043F04043F040400007088FC9F
:1033300008300000001820FF211E0000F008F000F7
:10334000E018000000211C031E211E0000F0088868
:10335000700000001E2123241927211010160E00D2
:10336000000000000000000000000000000000E07D
:103370001804020000000007182040000002041892
:10338000E00000000040201807000000404080F0EE
:10339000804040000202010F01020200000000F024
:1033A000000000000101011F0101010000000000F8
:1033B0000000000080B0700000000000000000006D
:1033C00000000000000101010101010100000000F6
:1033D000000000000030300000000000000000008D
:1033E00080601804006018060100000000E010086A
:1033F0000810E000000F102020100F00001010F83F
:10340000000000000020203F20200000007008087D
:1034100008887000003028242221300000300888FD
:10342000884830000018202020110E000000C02025
:1034300010F8000000070424243F240000F8088846
:10344000880808000019212020110E0000E01088D3
:1034500088180000000F112020110E000038080805
:10346000C83808000000003F000000000070880815
:1034700008887000001C222121221C0000E0100896
:103480000810E0000000312222110F00000000C0EF
:10349000C00000000000003030000000000000808C
:1034A000000000000000806000000000000080407C
:1034B0002010080000010204081020004040404095
:1034C00040404000040404040404040000081020E8
:1034D000408000000020100804020100007048082D
:1034E0000808F0000000003036010000C030C82895
:1034F000E810E0000718272423140B000000C03850
:10350000E0000000203C23020227382008F88888C9
:1035100088700000203F202020110E00C0300808D5
:1035200008083800071820202010080008F80808AC
:103530000810E000203F202020100F0008F88888A5
:10354000E8081000203F20202320180008F8888871
:10355000E8081000203F200003000000C0300808E9
:103560000838000007182020221E020008F8080072
:103570000008F808203F210101213F20000808F839
:10358000080800000020203F20200000000008085C
:10359000F8080800C08080807F00000008F888C01C
:1035A00028180800203F20012638200008F80800CD
:1035B00000000000203F20202020300008F8F80004
:1035C000F8F80800203F003F003F200008F830C016
:1035D0000008F808203F200007183F00E010080806
:1035E0000810E0000F10202020100F0008F8080835
:1035F0000808F000203F210101010000E010080848
:103600000810E0000F18242438504F0008F888886C
:1036100088887000203F2000030C3020007088084C
:10362000080838000038202121221C00180808F85A
:10363000080818000000203F2000000008F80800DB
:103640000008F808001F202020201F0008788800AC
:1036500000C83808000007380E010000F80800F81C
:103660000008F800033C0700073C030008186880C6
:103670008068180820302C03032C30200838C8003C
:10368000C83808000000203F20000000100808088B
:10369000C83808002038262120201800000000FE2D
:1036A000020202000000007F40404000000C30C0D9
:1036B00000000000000000010638C0000002020205
:1036C000FE000000004040407F00000000000402B7
:1036D00002020400000000000000000000000000E2
:1036E00000000000808080808080808000020204D2
:1036F00000000000000000000000000000008080CA
:10370000808000000019242222223F2008F8008037
:1037100080000000003F112020110E0000000080FA
:1037200080800000000E1120202011000000008089
:103730008088F800000E112020103F2000008080BB
:1037400080800000001F222222221300008080F0CF
:10375000888888180020203F2020000000008080FA
:1037600080808000006B94949493600008F800803F
:1037700080800000203F210000203F20008098989A
:10378000000000000020203F2020000000000080FA
:103790009898000000C08080807F000008F800003A
:1037A00080808000203F24022D302000000808F88F
:1037B000000000000020203F20200000808080804A
:1037C00080808000203F20003F20003F80800080DC
:1037D00080800000203F210000203F2000008080EA
:1037E00080800000001F202020201F00808000809B
:1037F0008000000080FFA12020110E00000000804A
:1038000080808000000E112020A0FF80808080003A
:103810008080800020203F21200001000000808067
:10382000808080000033242424241900008080E05C
:10383000808000000000001F202000008080000029
:1038400000808000001F202020103F20808080000A
:103850000080808000010E3008060100808000801A
:10386000008080800F300C030C300F00008080003F
:10387000808080000020312E0E312000808080006A
:103880000080808080818E7018060100008080801A
:10389000808080000021302C2221300000000000B8
:1038A000807C020200000000003F40400000000059
:1038B000FF00000000000000FF0000000002027C8A
:1038C000800000000040403F0000000000060101B1
:1038D00002020404000000000000000000030306D0
:1038E00001040602050003051F1C1F1E1F1E1F1FCB
:1038F0001E1F1E1F1439000800000020A800000031
:103900006C010008BC390008A800002010F8000075
:103910008801000800000000000000000000000016
:1039200000000000000000000001680100A24A043D
:10393000000000000000000001020304060708095F
:103940000000000000000000000000000000000077
:10395000000001020304010203040607080902042F
:103960000608000000000000000000000000000049
:103970000000000000000000000000000000000047
:103980000000000000000000000000000000000037
:103990000000000000000000000000000000000027
:1039A0000000000000000000000000000000000017
:0C39B0000000000000000000AAAAAAAA63
:040000050800027578
:00000001FF
